:0400000050EF2BF0A2
:1056A000000EF86E0001E0EF30F0016E9EA8FED70C
:1056B00001C0ADFF1200AC84B896330EAF6EAC984B
:1056C000AC8A000EF26EAB9CAB8EAB981200036EF0
:1056D000000E026E3A0E036005D02F0E036402D056
:1056E000010E026E02C001F0013012002D502E108A
:1056F0002F10D8B406D0000E2D1A000E2E1A800ED0
:105700002F1A2DC02DF02EC02EF02FC02FF012001A
:105710000F501102F3CF13F0F4CF14F00F50120218
:10572000F350142610501102F350142613C00FF03A
:1057300014C010F01200585059105A10D8B406D0A6
:10574000000E581A000E591A800E5A1A55C049F008
:1057500056C04AF057C04BF058C04CF059C04DF0FD
:105760005AC04EF00AEC30F049C055F04AC056F02D
:105770004BC057F012008E0E2C6E06D0D8902732F8
:105780002632253224322C2A000E2414286E000ED4
:105790002514296E000E26142A6EFF0E27142B6E78
:1057A000285029102A102B10D8A4E8D724C001F0C3
:1057B00025C002F026C003F02CC004F0000E056ED8
:1057C0001FEC2DF001C024F002C025F003C026F02C
:1057D00012001250131014101510D8B424D0010E5A
:1057E000166E06D0D8901236133614361536162A91
:1057F00015AEF8D712500E5C13500F5814501058B5
:1058000015501158D8A008D012500E5E13500F5AE0
:105810001450105A1550115AD890153214321332B0
:105820001232162EE7D70EC00EF00FC00FF010C0C8
:1058300010F011C011F01200000E066E02AE06D07C
:10584000016C021ED8B0022A010E066E04AE04D00E
:10585000036C041ED8B0042A03500410D8B418D026
:10586000010E056E04D0D89003360436052A04AE26
:10587000FAD70350015C04500258D8A004D003505A
:10588000015E0450025AD89004320332052EF1D73B
:105890000650D8B404D0016C021ED8B0022A01C050
:1058A00001F002C002F01200000E096E000E0A6E36
:1058B000000E0B6E000E0C6E05500610071008103F
:1058C000D8B42AD0010E0D6E06D0D8900536063613
:1058D000073608360D2A08AEF8D7D89009360A36AA
:1058E0000B360C360550015C065002580750035821
:1058F00008500458D8A009D00550015E0650025A3D
:105900000750035A0850045A0980D89008320732C9
:10591000063205320D2EE1D709C001F00AC002F0AF
:105920000BC003F00CC004F01200000E0C6E0AAEA7
:1059300006D0096C0A1ED8B00A2A010E0C6E08AEF9
:1059400006D0076C081ED8B0082A010E0C1A000EEB
:105950000E6E000E0D6E09500A10D8B41CD0010E48
:105960000B6E04D0D89009360A360B2A0AAEFAD745
:10597000D8900D360E360950075C0A500858D8A04A
:1059800005D00950075E0A50085A0D80D8900A3297
:1059900009320B2EEDD70C50D8B404D00D6C0E1E6E
:1059A000D8B00E2A0DC007F00EC008F0120057AE96
:1059B00016D055C05BF056C05CF057C05DF05B1E62
:1059C0005C1E5D1E5B2A000E5C225D22000E5B24C5
:1059D000556E000E5C20566E800E5D20576E5AAEDE
:1059E00016D058C05BF059C05CF05AC05DF05B1E29
:1059F0005C1E5D1E5B2A000E5C225D22000E5B2495
:105A0000586E000E5C20596E800E5D205A6E000E9E
:105A1000551A000E561A800E571A000E581A000E0C
:105A2000591A800E5A1A5850555C595056585A50A7
:105A30005758D8B002D0D8901200D8801200045025
:105A4000D8B405D0015002100310D8A40CD0000E19
:105A5000016E000E026E000E036E1200042AD89032
:105A6000033202320132000E0114066E000E0214DF
:105A7000076EFE0E0314086E065007100810D8B407
:105A80000CD0ECD7042A010E0126000E0222000ED3
:105A90000322D890033202320132000E0114066E46
:105AA000000E0214076EFF0E0314086E0650071056
:105AB0000810D8B406D0E6D70406D89001360236CE
:105AC000033602BE03D0020E0460F6D704A0029E85
:105AD000D8900432045003120550D8A4038E01C09C
:105AE00001F002C002F003C003F0120048C04CF005
:105AF0004D6A4E6A47344C3601E34D804C50536E2C
:105B00005350D8A407D0000E466E000E476E000E0C
:105B1000486E12004BC04CF04D6A4E6A4A344C3607
:105B200001E34D804C50546E5450D8A407D0000E61
:105B3000466E000E476E000E486E1200000E506E4C
:105B4000000E516E000E526E5450890F535E48C0C5
:105B500054F04B50541A800E5416478EFF0E4616C2
:105B6000FF0E4716000E48164A8EFF0E4916FF0E0E
:105B70004A16000E4B16180E4F6ED89050365136FE
:105B800052364950465C4A5047584B504858D8A066
:105B900007D04950465E4A50475A4B50485A5080A9
:105BA000D8904636473648364F2EE7D750C001F0DA
:105BB00051C002F052C003F053C004F054C005F0CD
:105BC0001FEC2DF001C046F002C047F003C048F0C2
:105BD000120017C019F01A6A1B6A1634193601E34D
:105BE0001A801950236E2350D8A409D0000E156EC8
:105BF000000E166E000E176E000E186E1200170EB5
:105C0000196E15C01AF016C01BF017C01CF0192829
:105C10001D6E04D0D8901C321B321A321D2EFAD7BA
:105C20001A501E6E168EFF0E1516FF0E1616000E5B
:105C3000171615501F6E1650206E1750216E226ACF
:105C40008E0E235E23AE16D02350800A8F0FD8B05D
:105C500009D0000E156E000E166E000E176E000EA7
:105C6000186E1200D8902232213220321F32233E89
:105C7000F9D715D0170E23640FD0000E156E000E45
:105C8000166E000E176E000E186E1200D8901F369A
:105C900020362136223623062350D8A4F7D71E50AB
:105CA000D8B408D0221E211E201E1F6C000E2022F8
:105CB000212222221FC015F020C016F021C017F0AB
:105CC00022C018F0120032C036F0376A386A313418
:105CD000363601E337803650396E3950D8A407D0B4
:105CE000000E306E000E316E000E326E120035C0A6
:105CF00036F0376A386A3434363601E33780365046
:105D00003E6E3E50D8A407D0000E306E000E316EAD
:105D1000000E326E12003E507B0F392632C03EF02C
:105D200035503E1A800E3E16318E348EFF0E3316DD
:105D3000FF0E3416000E3516000E3A6E000E3B6E46
:105D4000000E3C6E070E3D6E30A006D033503A2652
:105D500034503B2235503C22D890323231323032EE
:105D6000D8903336343635363D2EEED7090E3D6E9B
:105D700030A006D033503A2634503B2235503C22D6
:105D8000D890323231323032D8903C323B323A32D3
:105D90003D2EEED73AC001F03BC002F03CC003F00C
:105DA00039C004F03EC005F01FEC2DF001C030F00A
:105DB00002C031F003C032F01200033404340C6E20
:105DC0000C50D8A409D0000E016E000E026E000E19
:105DD000036E000E046E1200063407340B6E0B5077
:105DE000D8A409D0000E016E000E026E000E036EE4
:105DF000000E046E1200038EFF0E0116FF0E021637
:105E0000FF0E0316000E0416068EFF0E0416FF0E7C
:105E10000516FF0E0616000E0716000E076E000E82
:105E2000086E000E096E000E0A6E7F0E0C5E0B509F
:105E3000A00F0C5E200E0B6ED89007360836093680
:105E40000A360450015C05500258065003580750AA
:105E50000458D8A009D00450015E0550025A0650DB
:105E6000035A0750045A0780D89001360236033689
:105E700004360B2EE1D70CAE16D00C50800A9F0FC3
:105E8000D8B009D0000E016E000E026E000E036E37
:105E9000000E046E1200D8900A320932083207321E
:105EA0000C3EF9D715D01F0E0C640FD0000E016EFA
:105EB000000E026E000E036E000E046E1200D890EB
:105EC0000736083609360A360C060C50D8A4F7D720
:105ED00007C001F008C002F009C003F00AC004F0D6
:105EE000120003C007F0086A096A0234073601E3AA
:105EF000088007500F6E0F50D8A409D0000E016E15
:105F0000000E026E000E036E000E046E120006C03C
:105F100007F0086A096A0534073601E3088007506C
:105F20000E6E0E50D8A409D0000E016E000E026E47
:105F3000000E036E000E046E1200028EFF0E01169C
:105F4000FF0E0216000E0316058EFF0E0416FF0E3E
:105F50000516000E0616000E0A6E000E0B6E000EE1
:105F60000C6E000E0D6E7F0E0F5E0E50980F0F5EC2
:105F7000180E0E6ED8900A360B360C360D360450BD
:105F8000015C0550025806500358D8A007D00450B1
:105F9000015E0550025A0650035A0A80D890013615
:105FA000023603360E2EE6D70FAE16D00F50800AFB
:105FB000970FD8B009D0000E016E000E026E000ED1
:105FC000036E000E046E1200D8900D320C320B32AC
:105FD0000A320F3EF9D715D0170E0F640FD0000EFE
:105FE000016E000E026E000E036E000E046E1200B3
:105FF000D8900A360B360C360D360F060F50D8A443
:10600000F7D70AC001F00BC002F00CC003F00DC0BE
:1060100004F012004BC04FF0506A516A4A344F36B8
:1060200001E350804F50546E4EC04FF0506A516A99
:106030004D344F3601E350804F50536E5450D8B416
:106040000BD05350545CD8B00ED054500008532499
:106050004F6E180E4F6407D04CC049F04DC04AF047
:106060004EC04BF012005350D8B40BD05450535C78
:10607000D8B00ED05350000854244F6E180E4F6401
:1060800007D049C049F04AC04AF04BC04BF012005B
:10609000060E526E4BBE528E4EBE528C4A8EFF0E74
:1060A0004916FF0E4A16000E4B164D8EFF0E4C166B
:1060B000FF0E4D16000E4E165350545CD8B01BD038
:1060C000D8904C364D364E36530654505318D8B4EB
:1060D0000DD0520652C04FF0070E4F16D8B406D05E
:1060E000EFD7D8904B324A324932542A5350541881
:1060F000D8B41FD0F6D75450535CD8B01AD0D8902B
:1061000049364A364B36540654505318D8B40DD03D
:10611000520652C04FF0070E4F16D8B406D0EFD734
:10612000D8904E324D324C32532A53505418D8A482
:10613000F7D752AE0CD0FF0E491AFF0E4A1AFF0EC7
:106140004B1A010E4926000E4A22000E4B2252AC79
:106150000CD0FF0E4C1AFF0E4D1AFF0E4E1A010EF8
:106160004C26000E4D22000E4E22000E526E49505B
:106170004C264A504D224B504E224EAE0ED0FF0EB2
:106180004C1AFF0E4D1AFF0E4E1A010E4C26000E31
:106190004D22000E4E22010E526E4CC001F04DC039
:1061A00002F04EC003F054C004F052C005F01FECE2
:1061B0002DF001C049F002C04AF003C04BF01200BC
:1061C0005BEC2BF0950E0001606F7F0E0001616F9C
:1061D000E6EC34F0FC0E0001606F7F0E0001616F91
:1061E000E6EC34F0D70E0001606F7F0E0001616FA6
:1061F000E6EC34F0FC0E0001606F7F0E0001616F71
:10620000E6EC34F02F0E0001606F7F0E0001616F2D
:10621000E6EC34F0FC0E0001606F7F0E0001616F50
:10622000E6EC34F0F00E0001606F7F0E0001616F4C
:10623000E6EC34F0FC0E0001606F7F0E0001616F30
:10624000E6EC34F0FC0E0001606F7F0E0001616F20
:10625000E6EC34F0FC0E0001606F7F0E0001616F10
:10626000E6EC34F0000E0001926FA00E0001936F77
:10627000400E0001946F000E0001956F900E00011A
:10628000966F410E0001976F92C030F093C031F0CD
:1062900094C032F095C033F096C034F097C035F01A
:1062A00063EC2EF030C09CF031C09DF032C09EF007
:1062B0009CC015F09DC016F09EC017F0E9EC2DF0C3
:1062C00015C098F016C099F0660E0001606F7F0E41
:1062D0000001616F98C062F099C063F0E6EC34F0A1
:1062E000FC0E0001606F7F0E0001616FE6EC34F080
:1062F000FC0E0001606F7F0E0001616FE6EC34F070
:10630000000E00018F6F160E0001906F430E00010A
:10631000916F220E00019C6F540E00019D6F430E81
:1063200000019E6F9CC015F09DC016F09EC017F036
:10633000E9EC2DF015C09AF016C09BF0BB0E0001E1
:10634000606F7F0E0001616F9AC062F09BC063F0C6
:106350009CC064F09DC065F09EC066F0E6EC34F031
:10636000FC0E0001606F7F0E0001616FE6EC34F0FF
:10637000FFD7486E6D0E48649FD0000E126E030E5C
:10638000116E000E0A6E0A0E096E000E046E640E87
:10639000036E48C001F0026A1CEC2CF001C007F04B
:1063A00002C008F095EC2CF0090E07240F6E000EC9
:1063B0000820106E88EC2BF0080E0F24F66E7F0E6E
:1063C0001020F76E0900F5CF33F00900F5CF34F057
:1063D0000A00F5CF35F0000E0A6E640E096E48C053
:1063E00007F0086A95EC2CF0120E07240F6E000ED1
:1063F0000820106E000E126E030E116E88EC2BF04A
:10640000080E0F24F66E7F0E1020F76E0900F5CFF0
:1064100030F00900F5CF31F00A00F5CF32F063EC2F
:106420002EF030C045F031C046F032C047F0000ECB
:10643000126E030E116E000E046E0A0E036E48C03B
:1064400001F0026A1CEC2CF001C00FF002C010F049
:1064500088EC2BF0080E0F24F66E7F0E1020F76EDE
:106460000900F5CF33F00900F5CF34F00A00F5CF7D
:1064700035F045C030F046C031F047C032F063EC33
:106480002EF030C042F031C043F032C044F042C080
:1064900030F043C031F044C032F0000E336E000ED5
:1064A000346E3F0E356E63EC2EF030C03FF031C0DD
:1064B00040F032C041F012000A0E486463D0000E72
:1064C000126E030E116E000E046E0A0E036E48C0AB
:1064D00001F0026A1CEC2CF001C00FF002C010F0B9
:1064E00088EC2BF0080E0F24F66E7F0E1020F76E4E
:1064F0000900F5CF33F00900F5CF34F00A00F5CFED
:1065000035F0000E0A6E0A0E096E48C007F0086AE0
:1065100095EC2CF0090E07240F6E000E0820106E6B
:10652000000E126E030E116E88EC2BF0080E0F2475
:10653000F66E7F0E1020F76E0900F5CF30F00900DF
:10654000F5CF31F00A00F5CF32F063EC2EF030C019
:1065500045F031C046F032C047F045C030F046C08B
:1065600031F047C032F0000E336E000E346E3F0E35
:10657000356E63EC2EF030C03FF031C040F032C0D9
:1065800041F012004850030D080EF324F66E7F0E02
:10659000F420F76E0900F5CF30F00900F5CF31F0A7
:1065A0000A00F5CF32F0000E336E000E346E3F0E4F
:1065B000356E63EC2EF030C03FF031C040F032C099
:1065C00041F01200456E45AE01D1456C4550800A40
:1065D000120FD8A091D0000E126E030E116E000E95
:1065E0000A6E0A0E096E000E046E640E036E4550AC
:1065F000016E026A01BE02061CEC2CF001C007F01D
:1066000002C008F095EC2CF0090E07240F6E000E66
:106610000820106E88EC2BF0080E0F24F66E7F0E0B
:106620001020F76E0900F5CF33F00900F5CF34F0F4
:106630000A00F5CF35F0000E0A6E640E096E455063
:10664000076E086A07BE080695EC2CF0120E0724A8
:106650000F6E000E0820106E000E126E030E116EEB
:1066600088EC2BF0080E0F24F66E7F0E1020F76ECC
:106670000900F5CF30F00900F5CF31F00A00F5CF71
:1066800032F063EC2EF030C042F031C043F032C043
:1066900044F042C030F043C031F044C032F0000E4C
:1066A000126E030E116E000E046E0A0E036E45503C
:1066B000016E026A01BE02061CEC2CF001C00FF054
:1066C00002C010F088EC2BF0080E0F24F66E7F0E3F
:1066D0001020F76E0900F5CF33F00900F5CF34F044
:1066E0000A00F5CF35F063EC2EF030C03FF031C03A
:1066F00040F032C041F012004550800A750FD8A01A
:1067000053D0000E0A6E0A0E096E4550076E086AD5
:1067100007BE080695EC2CF0090E07240F6E000E3C
:106720000820106E000E126E030E116E88EC2BF016
:10673000080E0F24F66E7F0E1020F76E0900F5CFBD
:1067400030F00900F5CF31F00A00F5CF32F0000E3D
:10675000126E030E116E000E046E0A0E036E45508B
:10676000016E026A01BE02061CEC2CF001C00FF0A3
:1067700002C010F088EC2BF0080E0F24F66E7F0E8E
:106780001020F76E0900F5CF33F00900F5CF34F093
:106790000A00F5CF35F063EC2EF030C03FF031C089
:1067A00040F032C041F012004550030D080EF324B2
:1067B000F66E7F0EF420F76E0900F5CF3FF009006A
:1067C000F5CF40F00A00F5CF41F012004550800AA5
:1067D000120FD8A091D0000E126E030E116E000E93
:1067E0000A6E0A0E096E000E046E640E036E4550AA
:1067F000016E026A01BE02061CEC2CF001C007F01B
:1068000002C008F095EC2CF0090E07240F6E000E64
:106810000820106E88EC2BF0E10E0F24F66E7E0E31
:106820001020F76E0900F5CF33F00900F5CF34F0F2
:106830000A00F5CF35F0000E0A6E640E096E455061
:10684000076E086A07BE080695EC2CF0120E0724A6
:106850000F6E000E0820106E000E126E030E116EE9
:1068600088EC2BF0E10E0F24F66E7E0E1020F76EF2
:106870000900F5CF30F00900F5CF31F00A00F5CF6F
:1068800032F063EC2EF030C042F031C043F032C041
:1068900044F042C030F043C031F044C032F0000E4A
:1068A000126E030E116E000E046E0A0E036E45503A
:1068B000016E026A01BE02061CEC2CF001C00FF052
:1068C00002C010F088EC2BF0E10E0F24F66E7E0E65
:1068D0001020F76E0900F5CF33F00900F5CF34F042
:1068E0000A00F5CF35F063EC2EF030C03FF031C038
:1068F00040F032C041F012004550800A750FD8A018
:1069000053D0000E0A6E0A0E096E4550076E086AD3
:1069100007BE080695EC2CF0090E07240F6E000E3A
:106920000820106E000E126E030E116E88EC2BF014
:10693000E10E0F24F66E7E0E1020F76E0900F5CFE3
:1069400030F00900F5CF31F00A00F5CF32F0000E3B
:10695000126E030E116E000E046E0A0E036E455089
:10696000016E026A01BE02061CEC2CF001C00FF0A1
:1069700002C010F088EC2BF0E10E0F24F66E7E0EB4
:106980001020F76E0900F5CF33F00900F5CF34F091
:106990000A00F5CF35F063EC2EF030C03FF031C087
:1069A00040F032C041F012004550030DE10EF324D7
:1069B000F66E7E0EF420F76E0900F5CF3FF0090069
:1069C000F5CF40F00A00F5CF41F01200620E000151
:1069D000796F000E00017A6F4CEF3FF0250E000139
:1069E0008E19D8B406D000018E5155EC2BF04CEF27
:1069F0003FF0000E0001806F000E7F6F000E00015F
:106A00008D6F000E8C6F0ED000018C8708D00001B6
:106A10008C8105D000018C8302D000018D8700019C
:106A2000604B612B60C0F6FF61C0F7FF0800F550B6
:106A3000200AD8B4ECD7030AD8B4EFD7080AD8B4E0
:106A4000E9D7060AD8B4E0D700018CA302D0000130
:106A50008C9160C0F6FF61C0F7FF0800F55067EC4D
:106A60002BF0D8A03FD0000E0001806F000E7F6F8A
:106A70007FC00FF080C010F0000E126E0A0E116E73
:106A800088EC2BF00FC07FF010C080F0D00E00011A
:106A9000676FFF0E0001686F60C0F6FF61C0F7FF0F
:106AA0000800F5500001696F6A6B00016751000131
:106AB00069270001685100016A2300016951000142
:106AC0007F2700016A51000180230001604B612B88
:106AD00060C0F6FF61C0F7FF0800F55067EC2BF0CF
:106AE000D8B0C6D760C0F6FF61C0F7FF0800F55008
:106AF0002E0AD8A434D000018D8D0001604B612B8B
:106B0000000E00018B6F000E8A6F1ED08AC00FF03E
:106B10008BC010F0000E126E0A0E116E88EC2BF076
:106B200060C0F6FF61C0F7FF0800F5500F26000EA9
:106B30001022D00E0F2400018A6FFF0E10200001DA
:106B40008B6F0001604B612B60C0F6FF61C0F7FFE7
:106B50000800F55067EC2BF0D8A016D0D7D7000E60
:106B600000018B6F000E8A6F00018D890DD000012E
:106B70008D852FD000018C8B00018D812AD00001E2
:106B80008C8B00018D8325D060C0F6FF61C0F7FFBC
:106B90000001604B612B0800F5CF8EF000018E5193
:106BA000000AD8B41200450AD8B4E4D7020AD8B40F
:106BB000E6D7230AD8B40DD0010AD8B4DDD7030A2A
:106BC000D8B4D5D7010AD8B4DCD70E0AD8A44CEF74
:106BD0003FF0070E00018D15D8B4CFEF3DF0000156
:106BE0008DA905D0000E00018B6F060E8A6F79C04B
:106BF000D9FF7AC0DAFFDECF87F0DECF88F0DDCFB5
:106C000089F0030E00017927000E7A23000189AF75
:106C100011D087C02DF088C02EF089C02FF076ECFF
:106C20002BF02DC087F02EC088F02FC089F0030E06
:106C300000018C13000E0001826F000E816F0001B5
:106C400087510001881100018911D8B491D0820EBA
:106C50000001676FFF0E0001686F87C069F088C090
:106C60006AF089C06BF08AC06CF0100E06D000018B
:106C7000D8906C336B336A336933E82EF8D7000150
:106C80006951000167250001816F000E0001682134
:106C90000001826F00018107D8A0820781C00FF038
:106CA00082C010F0000E126E030E116E88EC2BF0F5
:106CB0000FC081F010C082F081C007F082C008F0E0
:106CC000000E0A6E0A0E096E95EC2CF007C081F0DA
:106CD00008C082F0000182AF04D000018107D8A073
:106CE0008207000181510008E2EC32F03FC07BF0E6
:106CF00040C07CF041C07DF07BC030F07CC031F002
:106D00007DC032F087C033F088C034F089C035F0E0
:106D100063EC2EF030C07BF031C07CF032C07DF0EF
:106D20007BC055F07CC056F07DC057F0000E586E09
:106D3000800E596E3F0E5A6ED7EC2CF0D8B005D0AD
:106D400000018107D8A0820713D07BC055F07CC01A
:106D500056F07DC057F0000E586E200E596E410E51
:106D60005A6ED7EC2CF0D8A003D00001814B822BB7
:106D7000000182BF07D00001825108E100018105B6
:106D8000D8B004D0010E00018E6F02D081C08EF009
:106D900000018DB11ED000018DA357D3000182AF39
:106DA00008D0FC0E0001815DFF0E00018259D8A0C1
:106DB00010D000018A510001815D00018251800ADA
:106DC0000001676F00018B51800A00016759D8A04C
:106DD0003CD300018A5100018B11D8B407D00001C7
:106DE0008DA304D000018A07D8A08B0700018B5126
:106DF00005E1090E00018A5DD8A004D0080E00014B
:106E00008E6F02D08AC08EF0000187510001881178
:106E100000018911D8B4E6D087C046F088C047F099
:106E200089C048F000018E51000800018125E2EC84
:106E300032F03FC049F040C04AF041C04BF076EC20
:106E40002DF046C087F047C088F048C089F087C061
:106E50004CF088C04DF089C04EF087C015F088C056
:106E600016F089C017F0E9EC2DF015C024F016C01B
:106E700025F017C026F018C027F0BBEC2BF024C07B
:106E80002DF025C02EF026C02FF076EC2BF02DC073
:106E900049F02EC04AF02FC04BF00AEC30F049C048
:106EA00055F04AC056F04BC057F0000E586E000E19
:106EB000596E3F0E5A6ED7EC2CF0D8A014D087C074
:106EC00049F088C04AF089C04BF0000E4C6E000EAD
:106ED0004D6E3F0E4E6E0AEC30F049C087F04AC04E
:106EE00088F04BC089F08EC067F00001686B67BF07
:106EF00068070001D890673768370001D890673776
:106F00006837040E00016727000E6823B90E0001E0
:106F10006725F66E7E0E6821F76E87C015F088C073
:106F200016F089C017F0E9EC2DF00900F550155C5A
:106F30000900F55016580900F55017580900F5508A
:106F40001858D8A018D087C030F088C031F089C058
:106F500032F0CD0E336ECC0E346E3D0E356E63ECDA
:106F60002EF030C087F031C088F032C089F00001C7
:106F7000814B822B37D000018E51040DB90EF324C2
:106F8000F66E7E0EF420F76E87C015F088C016F0FE
:106F900089C017F0E9EC2DF00900F550155C0900E7
:106FA000F55016580900F55017580900F5501858B3
:106FB000D8B018D087C030F088C031F089C032F026
:106FC000000E336E200E346E410E356E63EC2EF0E3
:106FD00030C087F031C088F032C089F000018107ED
:106FE000D8A0820700018DA392D000018DB78FD069
:106FF00000018BBF0DD000018B5105E10B0E00018C
:107000008A5DD8A005D0000E00018B6F0A0E8A6F32
:1070100087C015F088C016F089C017F0E9EC2DF094
:1070200015C083F016C084F017C085F018C086F034
:107030001ED000018A07D8A08B0783C001F084C04E
:1070400002F085C003F086C004F00A0E056E000E43
:10705000066E000E076E000E086E54EC2CF001C098
:1070600083F002C084F003C085F004C086F0000104
:107070008351000184110001851100018611D8B4EB
:1070800018D083C00EF084C00FF085C010F086C009
:1070900011F00A0E126E000E136E000E146E000E2A
:1070A000156EE9EC2BF00E500F1010101110D8B423
:1070B000C0D700018B51800A0001676F00018E511B
:1070C00000018A5D800E00018EBF7F0E00016759AE
:1070D000D8B01DD087C046F088C047F089C048F0BE
:1070E00000018A51000800018E25E2EC32F03FC019
:1070F00049F040C04AF041C04BF076EC2DF046C05C
:1071000087F047C088F048C089F08AC08EF0050E2D
:1071100000018A250001676F000E00018B2100012C
:10712000686F0001675100017F5F00016851000135
:10713000805B00018A5100018B11D8A403D00001AB
:107140008DA704D000017F07D8A08007030E00019F
:107150008C150001676F000E00018D150001686F2E
:107160000001675100016811D8B404D000017F0705
:10717000D8A0800700018CA708D011D0200E55ECB4
:107180002BF000017F07D8A08007000180BF07D047
:1071900000018051F3E100017F05D8B0EFD7000175
:1071A0008CA312D000018CB105D0000E0001716FCC
:1071B0002B0E04D0000E0001716F2D0E706F0001B8
:1071C000705155EC2BF006D000018CA103D0200E9D
:1071D00055EC2BF087C015F088C016F089C017F069
:1071E000E9EC2DF015C083F016C084F017C085F0CF
:1071F00018C086F083C001F084C002F085C003F09F
:1072000086C004F000018E51040DB90EF324F66E11
:107210007E0EF420F76E0900F5CF05F00900F5CFDA
:1072200006F00900F5CF07F00A00F5CF08F054EC9E
:107230002CF00150300F55EC2BF083C00EF084C0C1
:107240000FF085C010F086C011F000018E51040DC2
:10725000B90EF324F66E7E0EF420F76E0900F5CF1A
:1072600012F00900F5CF13F00900F5CF14F00A0071
:10727000F5CF15F0E9EC2BF00EC083F00FC084F0D1
:1072800010C085F011C086F000018A5100018B11F9
:10729000D8A403D000018DA784D02E0E55EC2BF07E
:1072A00000018E5100018A5F000E00018EBFFF0EAB
:1072B00000018B5B62D000018DA315D000018351CA
:1072C000000184110001851100018611D8A40BD0A2
:1072D000000E00018E6F00018E5100018A6F8B6BD2
:1072E0008ABF8B0758D083C001F084C002F085C0EC
:1072F00003F086C004F000018E51040DB90EF32492
:10730000F66E7E0EF420F76E0900F5CF05F0090049
:10731000F5CF06F00900F5CF07F00A00F5CF08F029
:1073200054EC2CF00150300F55EC2BF083C00EF0D4
:1073300084C00FF085C010F086C011F000018E519E
:10734000040DB90EF324F66E7E0EF420F76E0900DC
:10735000F5CF12F00900F5CF13F00900F5CF14F0C6
:107360000A00F5CF15F0E9EC2BF00EC083F00FC04A
:1073700084F010C085F011C086F000018E07000176
:107380008E29D8B408D097D7300E55EC2BF00001D9
:107390008A07D8A08B0700018A5100018B11D8A45D
:1073A000F3D700018CAB04D0450E55EC2BF003D085
:1073B000650E55EC2BF0000182AF09D00001816D04
:1073C000821FD8B0822B2D0E55EC2BF003D02B0E44
:1073D00055EC2BF081C007F082C008F0000E0A6E59
:1073E0000A0E096E95EC2CF00750300F55EC2BF07F
:1073F00081C001F082C002F0000E046E0A0E036E1E
:107400001CEC2CF00150300F55EC2BF000018CA738
:107410004CEF3FF0000180BF4CEF3FF00001805186
:1074200005E100017F05D8A04CEF3FF0200E55ECA0
:107430002BF000017F07D8A0800700017F510001D9
:107440008011D8B44CEF3FF0F1D700018DA304D1E7
:10745000000182AF12D0010E000181250001676F8B
:10746000000E000182210001686F000167510001D8
:107470008A5F0001685100018B5B87C015F088C0EE
:1074800016F089C017F0E9EC2DF015C083F016C096
:1074900084F017C085F018C086F0000E00018E6FD2
:1074A0000A0E00018E19D8B41ED000018E51040DB1
:1074B000B90EF324F66E7E0EF420F76E0900F55037
:1074C0000001835D0900F550000184590900F55061
:1074D000000185590900F55000018659D8A003D054
:1074E00000018E2BDDD700018E5100018A5F000E56
:1074F00000018EBFFF0E00018B5B00018BBF08D027
:1075000000018B511DE10D0E00018A5DD8B018D02D
:1075100087C049F088C04AF089C04BF000018A5109
:10752000B9EC31F03FC04CF040C04DF041C04EF0DE
:107530000AEC30F049C087F04AC088F04BC089F0AF
:1075400000018A51E2EC32F03FC076F040C077F0A3
:1075500041C078F076C030F077C031F078C032F0BA
:1075600087C04CF088C04DF089C04EF083C024F035
:1075700084C025F085C026F086C027F0BBEC2BF038
:1075800024C02DF025C02EF026C02FF076EC2BF075
:107590002DC049F02EC04AF02FC04BF00AEC30F05D
:1075A00049C033F04AC034F04BC035F063EC2EF0E4
:1075B00030C076F031C077F032C078F076C015F088
:1075C00077C016F078C017F0E9EC2DF015C083F005
:1075D00016C084F017C085F018C086F01ED083C096
:1075E00001F084C002F085C003F086C004F00A0EEA
:1075F000056E000E066E000E076E000E086E54EC4F
:107600002CF001C083F002C084F003C085F004C0F8
:1076100086F000018A07D8A08B0700018A5100017B
:107620008B11D8B43CD083C00EF084C00FF085C05D
:1076300010F086C011F00A0E126E000E136E000ECE
:10764000146E000E156EE9EC2BF00E500F1010109A
:107650001110D8A424D0C3D700018BBF08D00001DB
:107660008B511DE10D0E00018A5DD8B018D087C086
:1076700049F088C04AF089C04BF000018A51B9EC4A
:1076800031F03FC04CF040C04DF041C04EF00AEC2C
:1076900030F049C087F04AC088F04BC089F0000143
:1076A00082BF08D00001825126E10A0E0001815DEF
:1076B000D8B021D000018751000188110001891143
:1076C000D8B45BD087C015F088C016F089C017F019
:1076D000E9EC2DF01550161017101810D8A44DD045
:1076E000000182BF4AD00001825105E1020E000173
:1076F000815DD8A042D07BC055F07CC056F07DC0E3
:1077000057F0700E586E890E596E400E5A6ED7ECB7
:107710002CF0D8B003D00001F70E02D00001F80E13
:107720008127FF0E822300018151E2EC32F03FC03D
:107730007BF040C07CF041C07DF087C001F088C084
:1077400002F089C003F07BC004F07CC005F07DC06E
:1077500006F071EC2FF001C083F002C084F003C08A
:1077600085F004C086F0000E0001876F000E000156
:10777000886F000E0001896F33D087C015F088C074
:1077800016F089C017F0E9EC2DF015C083F016C093
:1077900084F017C085F018C086F087C055F088C007
:1077A00056F089C057F083C024F084C025F085C00E
:1077B00026F086C027F0BBEC2BF024C058F025C083
:1077C00059F026C05AF09BEC2BF055C087F056C0FC
:1077D00088F057C089F0000E0001826F000E816FA3
:1077E000010E00018E6F0A0E00018E19D8B41ED052
:1077F00000018E51040DB90EF324F66E7E0EF420B6
:10780000F76E0900F5500001835D0900F550000195
:1078100084590900F550000185590900F55000010F
:107820008659D8A003D000018E2BDDD78EC067F01B
:107830000001686B67BF680700018A510001672774
:1078400000018B510001682300018151000167276D
:1078500000018251000168230001675100017F5F30
:10786000000168510001805B00018DB706D0000166
:107870008A5100018B11D8B404D000017F07D8A031
:107880008007030E00018C150001676F000E0001D8
:107890008D150001686F0001675100016811D8B4AF
:1078A00004D000017F07D8A0800700018CA708D072
:1078B00011D0200E55EC2BF000017F07D8A08007D7
:1078C000000180BF07D000018051F3E100017F0576
:1078D000D8B0EFD700018CA312D000018CB105D035
:1078E000000E0001736F2B0E04D0000E0001736FA9
:1078F0002D0E726F0001725155EC2BF04DD000012E
:107900008CA14AD0200E55EC2BF046D083C001F05C
:1079100084C002F085C003F086C004F000018E51DF
:10792000040DB90EF324F66E7E0EF420F76E0900F6
:10793000F5CF05F00900F5CF06F00900F5CF07F007
:107940000A00F5CF08F054EC2CF001C07BF002C027
:107950007CF003C07DF004C07EF07BC00EF07CC0E4
:107960000FF07DC010F07EC011F00A0E126E000EF6
:10797000136E000E146E000E156EE9EC2BF00EC0A7
:107980007BF00FC07CF010C07DF011C07EF00001D4
:107990007B51300F55EC2BF000018E0700018E2932
:1079A000D8B408D0B3D7300E55EC2BF000018107C6
:1079B000D8A08207000182BF07D000018251F3E105
:1079C00000018105D8B0EFD700018BBF0CD00001BA
:1079D0008B5105E1090E00018A5DD8A004D0080E84
:1079E00000018E6F02D08AC08EF000018E5100011E
:1079F0008A5F000E00018EBFFF0E00018B5B00014D
:107A00008E510001D8A403D000018DA703D02E0E03
:107A100055EC2BF000018E51E2EC32F03FC06DF0DE
:107A200040C06EF041C06FF087C033F088C034F0C2
:107A300089C035F06DC030F06EC031F06FC032F0EB
:107A400063EC2EF030C015F031C016F032C017F0E4
:107A5000E9EC2DF015C083F016C084F017C085F056
:107A600018C086F06DD083C001F084C002F085C0DC
:107A700003F086C004F000018E51040DB90EF3240A
:107A8000F66E7E0EF420F76E0900F5CF05F00900C2
:107A9000F5CF06F00900F5CF07F00A00F5CF08F0A2
:107AA00054EC2CF001C07BF002C07CF003C07DF0F0
:107AB00004C07EF07BC00EF07CC00FF07DC010F0E3
:107AC0007EC011F00A0E126E000E136E000E146EC0
:107AD000000E156EE9EC2BF00EC07BF00FC07CF0B1
:107AE00010C07DF011C07EF000017B51300F55ECCD
:107AF0002BF083C00EF084C00FF085C010F086C05C
:107B000011F000018E51040DB90EF324F66E7E0EB5
:107B1000F420F76E0900F5CF12F00900F5CF13F04D
:107B20000900F5CF14F00A00F5CF15F0E9EC2BF0C1
:107B30000EC083F00FC084F010C085F011C086F035
:107B400000018E0700018E29D8B408D08CD7300EE2
:107B500055EC2BF000018A07D8A08B0700018A5151
:107B600000018B11D8A4F3D700018CA795D1000197
:107B700080BF92D10001805104E100017F05D8A0AF
:107B80008BD1200E55EC2BF000017F07D8A0800789
:107B900000017F5100018011D8B47ED1F2D779C0A5
:107BA000D9FF7AC0DAFFDECF83F0DDCF84F00001A9
:107BB000000E84BFFF0E856F866F020E00017927CD
:107BC000000E7A23000186AF0CD0030E00018C1347
:107BD0000001861F851F841F836D000E842385236B
:107BE000862300018A5100018B11D8A40DD0000119
:107BF0008351000184110001851100018611D8A470
:107C000003D000018A4B8B2B010E00018E6F0A0EF0
:107C100000018E19D8B41ED000018E51040DB90E8A
:107C2000F324F66E7E0EF420F76E0900F550000185
:107C3000835D0900F550000184590900F5500001E9
:107C400085590900F55000018659D8A003D00001DC
:107C50008E2BDDD7800E00018EBF7F0E0001676F77
:107C600000018A5100018E5D00018B51800A0001E4
:107C70006759D8B003D08AC08EF018D000018B515C
:107C8000800A0001676F00018E5100018A5D800E3D
:107C900000018EBF7F0E00016759D8B007D00001E8
:107CA0008E5100018A6F8B6B8ABF8B0700017F5159
:107CB00000018011D8B414D0030E00018C1500010E
:107CC000676F000E00018D150001686F000167519C
:107CD00000016811D8B404D000017F07D8A0800744
:107CE00000018DAD1ED000017F5100018A5D0001B1
:107CF0008B51800A0001676F00018051800A0001EA
:107D00006759D8B009D000018A5100017F5F000196
:107D10008B510001805B05D0000E0001806F000ECA
:107D20007F6F800E00018EBF7F0E0001676F000124
:107D30007F5100018E5D00018051800A000167596A
:107D4000D8B00BD000018E5100017F5F000E000102
:107D50008EBFFF0E0001805B05D0000E0001806F1A
:107D6000000E7F6F00017F5100018011D8B410D048
:107D700000018CB70DD0200E55EC2BF000017F07D1
:107D8000D8A0800700017F5100018011D8A4F3D74B
:107D900000018CA312D000018CB105D0000E0001AF
:107DA000756F2B0E04D0000E0001756F2D0E746FD1
:107DB0000001745155EC2BF04AD000018CA147D042
:107DC000200E55EC2BF043D08AC067F08BC068F0D2
:107DD0000001D890673768370001D8906737683757
:107DE000B90E00016725F66E7E0E6821F76E090058
:107DF000F5CF05F00900F5CF06F00900F5CF07F043
:107E00000A00F5CF08F083C001F084C002F085C0FD
:107E100003F086C004F054EC2CF001C00EF002C058
:107E20000FF003C010F004C011F00A0E126E000E25
:107E3000136E000E146E000E156EE9EC2BF00E5052
:107E4000300F00018E6F00018E5155EC2BF00001B8
:107E50008A07D8A08B0700018A29B6E100018B2987
:107E6000D8A4B2D700018CA717D0000180BF14D0CE
:107E70000001805104E100017F05D8A00DD0200E43
:107E800055EC2BF000017F07D8A0800700017F513F
:107E900000018011D8A4F3D760C0F6FF61C0F7FFDE
:107EA0000001604B612B0800F5CF8EF000018E5170
:107EB000D8B41200EEEF34F000010000000A000018
:107EC0000064000000E803000010270000A0860105
:107ED0000040420F008096980000E1F50500CA9A24
:107EE0003B00803F00204100C842007A44401C46CD
:107EF00050C34724744997184BBCBE4C6B6E4E035D
:107F0000155079AD60F3497100803FCDCC3DD7234A
:107F10003C12833AB7D138C62737388635C0D633B6
:107F2000CC2B32708930E7DB2EE53C1E42A20D459A
:107F300045544420343030313A204D6963726F63C8
:107F40006F6E74726F6C6C65727320262050726F46
:107F50006772616D6D696E672C2054726F79204372
:107F60006F6E726164005468652061726561206F94
:107F700066207468652072656374616E676C652045
:107F8000697320256420756E69747320737175613F
:107F90007265642E0041737369676E6D656E74203F
:107FA000493A205661726961626C657320616E6442
:107FB000204F70657261746F7273003135302056D6
:107FC0007020697320657175616C20746F2025665F
:107FD0002056524D532E00477261636520537472D0
:107FE0006174746F6E2C2077303430313932360042
:0F7FF0003239204A616E2032303138000A0000E9
:020000040020DA
:08000000FFFFFFFFFFFFFFFF00
:020000040030CA
:0E000000FF081F1EFF8B81FF0FC00FE00F4097
:00000001FF
